{
  "contractName": "CookieClickerGameContract",
  "abi": [
    {
      "inputs": [],
      "stateMutability": "nonpayable",
      "type": "constructor"
    },
    {
      "anonymous": false,
      "inputs": [
        {
          "indexed": true,
          "internalType": "address",
          "name": "owner",
          "type": "address"
        },
        {
          "indexed": true,
          "internalType": "address",
          "name": "approved",
          "type": "address"
        },
        {
          "indexed": true,
          "internalType": "uint256",
          "name": "tokenId",
          "type": "uint256"
        }
      ],
      "name": "Approval",
      "type": "event"
    },
    {
      "anonymous": false,
      "inputs": [
        {
          "indexed": true,
          "internalType": "address",
          "name": "owner",
          "type": "address"
        },
        {
          "indexed": true,
          "internalType": "address",
          "name": "operator",
          "type": "address"
        },
        {
          "indexed": false,
          "internalType": "bool",
          "name": "approved",
          "type": "bool"
        }
      ],
      "name": "ApprovalForAll",
      "type": "event"
    },
    {
      "anonymous": false,
      "inputs": [
        {
          "indexed": true,
          "internalType": "address",
          "name": "previousOwner",
          "type": "address"
        },
        {
          "indexed": true,
          "internalType": "address",
          "name": "newOwner",
          "type": "address"
        }
      ],
      "name": "OwnershipTransferred",
      "type": "event"
    },
    {
      "anonymous": false,
      "inputs": [
        {
          "indexed": true,
          "internalType": "address",
          "name": "from",
          "type": "address"
        },
        {
          "indexed": true,
          "internalType": "address",
          "name": "to",
          "type": "address"
        },
        {
          "indexed": true,
          "internalType": "uint256",
          "name": "tokenId",
          "type": "uint256"
        }
      ],
      "name": "Transfer",
      "type": "event"
    },
    {
      "inputs": [
        {
          "internalType": "address",
          "name": "to",
          "type": "address"
        },
        {
          "internalType": "uint256",
          "name": "tokenId",
          "type": "uint256"
        }
      ],
      "name": "approve",
      "outputs": [],
      "stateMutability": "nonpayable",
      "type": "function"
    },
    {
      "inputs": [
        {
          "internalType": "address",
          "name": "owner",
          "type": "address"
        }
      ],
      "name": "balanceOf",
      "outputs": [
        {
          "internalType": "uint256",
          "name": "",
          "type": "uint256"
        }
      ],
      "stateMutability": "view",
      "type": "function"
    },
    {
      "inputs": [
        {
          "internalType": "uint256",
          "name": "tokenId",
          "type": "uint256"
        }
      ],
      "name": "getApproved",
      "outputs": [
        {
          "internalType": "address",
          "name": "",
          "type": "address"
        }
      ],
      "stateMutability": "view",
      "type": "function"
    },
    {
      "inputs": [
        {
          "internalType": "address",
          "name": "owner",
          "type": "address"
        },
        {
          "internalType": "address",
          "name": "operator",
          "type": "address"
        }
      ],
      "name": "isApprovedForAll",
      "outputs": [
        {
          "internalType": "bool",
          "name": "",
          "type": "bool"
        }
      ],
      "stateMutability": "view",
      "type": "function"
    },
    {
      "inputs": [],
      "name": "name",
      "outputs": [
        {
          "internalType": "string",
          "name": "",
          "type": "string"
        }
      ],
      "stateMutability": "view",
      "type": "function"
    },
    {
      "inputs": [],
      "name": "owner",
      "outputs": [
        {
          "internalType": "address",
          "name": "",
          "type": "address"
        }
      ],
      "stateMutability": "view",
      "type": "function"
    },
    {
      "inputs": [
        {
          "internalType": "uint256",
          "name": "tokenId",
          "type": "uint256"
        }
      ],
      "name": "ownerOf",
      "outputs": [
        {
          "internalType": "address",
          "name": "",
          "type": "address"
        }
      ],
      "stateMutability": "view",
      "type": "function"
    },
    {
      "inputs": [],
      "name": "renounceOwnership",
      "outputs": [],
      "stateMutability": "nonpayable",
      "type": "function"
    },
    {
      "inputs": [
        {
          "internalType": "address",
          "name": "from",
          "type": "address"
        },
        {
          "internalType": "address",
          "name": "to",
          "type": "address"
        },
        {
          "internalType": "uint256",
          "name": "tokenId",
          "type": "uint256"
        }
      ],
      "name": "safeTransferFrom",
      "outputs": [],
      "stateMutability": "nonpayable",
      "type": "function"
    },
    {
      "inputs": [
        {
          "internalType": "address",
          "name": "from",
          "type": "address"
        },
        {
          "internalType": "address",
          "name": "to",
          "type": "address"
        },
        {
          "internalType": "uint256",
          "name": "tokenId",
          "type": "uint256"
        },
        {
          "internalType": "bytes",
          "name": "_data",
          "type": "bytes"
        }
      ],
      "name": "safeTransferFrom",
      "outputs": [],
      "stateMutability": "nonpayable",
      "type": "function"
    },
    {
      "inputs": [
        {
          "internalType": "address",
          "name": "operator",
          "type": "address"
        },
        {
          "internalType": "bool",
          "name": "approved",
          "type": "bool"
        }
      ],
      "name": "setApprovalForAll",
      "outputs": [],
      "stateMutability": "nonpayable",
      "type": "function"
    },
    {
      "inputs": [
        {
          "internalType": "bytes4",
          "name": "interfaceId",
          "type": "bytes4"
        }
      ],
      "name": "supportsInterface",
      "outputs": [
        {
          "internalType": "bool",
          "name": "",
          "type": "bool"
        }
      ],
      "stateMutability": "view",
      "type": "function"
    },
    {
      "inputs": [],
      "name": "symbol",
      "outputs": [
        {
          "internalType": "string",
          "name": "",
          "type": "string"
        }
      ],
      "stateMutability": "view",
      "type": "function"
    },
    {
      "inputs": [
        {
          "internalType": "uint256",
          "name": "tokenId",
          "type": "uint256"
        }
      ],
      "name": "tokenURI",
      "outputs": [
        {
          "internalType": "string",
          "name": "",
          "type": "string"
        }
      ],
      "stateMutability": "view",
      "type": "function"
    },
    {
      "inputs": [
        {
          "internalType": "address",
          "name": "from",
          "type": "address"
        },
        {
          "internalType": "address",
          "name": "to",
          "type": "address"
        },
        {
          "internalType": "uint256",
          "name": "tokenId",
          "type": "uint256"
        }
      ],
      "name": "transferFrom",
      "outputs": [],
      "stateMutability": "nonpayable",
      "type": "function"
    },
    {
      "inputs": [
        {
          "internalType": "address",
          "name": "newOwner",
          "type": "address"
        }
      ],
      "name": "transferOwnership",
      "outputs": [],
      "stateMutability": "nonpayable",
      "type": "function"
    },
    {
      "inputs": [
        {
          "internalType": "string",
          "name": "tokenURI",
          "type": "string"
        }
      ],
      "name": "mint",
      "outputs": [],
      "stateMutability": "nonpayable",
      "type": "function"
    }
  ],
  "bytecode": "0x60806040523480156200001157600080fd5b506040518060400160405280601381526020017f434f4f4b494520434c49434b45522047414d45000000000000000000000000008152506040518060400160405280600381526020017f4343470000000000000000000000000000000000000000000000000000000000815250816000908051906020019062000096929190620001a6565b508060019080519060200190620000af929190620001a6565b505050620000d2620000c6620000d860201b60201c565b620000e060201b60201c565b620002ba565b600033905090565b6000600760009054906101000a900473ffffffffffffffffffffffffffffffffffffffff16905081600760006101000a81548173ffffffffffffffffffffffffffffffffffffffff021916908373ffffffffffffffffffffffffffffffffffffffff1602179055508173ffffffffffffffffffffffffffffffffffffffff168173ffffffffffffffffffffffffffffffffffffffff167f8be0079c531659141344cd1fd0a4f28419497f9722a3daafe3b4186f6b6457e060405160405180910390a35050565b828054620001b49062000285565b90600052602060002090601f016020900481019282620001d8576000855562000224565b82601f10620001f357805160ff191683800117855562000224565b8280016001018555821562000224579182015b828111156200022357825182559160200191906001019062000206565b5b50905062000233919062000237565b5090565b5b808211156200025257600081600090555060010162000238565b5090565b7f4e487b7100000000000000000000000000000000000000000000000000000000600052602260045260246000fd5b600060028204905060018216806200029e57607f821691505b602082108103620002b457620002b362000256565b5b50919050565b612fd680620002ca6000396000f3fe608060405234801561001057600080fd5b506004361061010b5760003560e01c8063715018a6116100a2578063b88d4fde11610071578063b88d4fde146102a4578063c87b56dd146102c0578063d85d3d27146102f0578063e985e9c51461030c578063f2fde38b1461033c5761010b565b8063715018a6146102425780638da5cb5b1461024c57806395d89b411461026a578063a22cb465146102885761010b565b806323b872dd116100de57806323b872dd146101aa57806342842e0e146101c65780636352211e146101e257806370a08231146102125761010b565b806301ffc9a71461011057806306fdde0314610140578063081812fc1461015e578063095ea7b31461018e575b600080fd5b61012a60048036038101906101259190611c4f565b610358565b6040516101379190611c97565b60405180910390f35b61014861043a565b6040516101559190611d4b565b60405180910390f35b61017860048036038101906101739190611da3565b6104cc565b6040516101859190611e11565b60405180910390f35b6101a860048036038101906101a39190611e58565b610551565b005b6101c460048036038101906101bf9190611e98565b610668565b005b6101e060048036038101906101db9190611e98565b6106c8565b005b6101fc60048036038101906101f79190611da3565b6106e8565b6040516102099190611e11565b60405180910390f35b61022c60048036038101906102279190611eeb565b610799565b6040516102399190611f27565b60405180910390f35b61024a610850565b005b6102546108d8565b6040516102619190611e11565b60405180910390f35b610272610902565b60405161027f9190611d4b565b60405180910390f35b6102a2600480360381019061029d9190611f6e565b610994565b005b6102be60048036038101906102b991906120e3565b6109aa565b005b6102da60048036038101906102d59190611da3565b610a0c565b6040516102e79190611d4b565b60405180910390f35b61030a60048036038101906103059190612207565b610b5d565b005b61032660048036038101906103219190612250565b610c09565b6040516103339190611c97565b60405180910390f35b61035660048036038101906103519190611eeb565b610c9d565b005b60007f80ac58cd000000000000000000000000000000000000000000000000000000007bffffffffffffffffffffffffffffffffffffffffffffffffffffffff1916827bffffffffffffffffffffffffffffffffffffffffffffffffffffffff1916148061042357507f5b5e139f000000000000000000000000000000000000000000000000000000007bffffffffffffffffffffffffffffffffffffffffffffffffffffffff1916827bffffffffffffffffffffffffffffffffffffffffffffffffffffffff1916145b80610433575061043282610d94565b5b9050919050565b606060008054610449906122bf565b80601f0160208091040260200160405190810160405280929190818152602001828054610475906122bf565b80156104c25780601f10610497576101008083540402835291602001916104c2565b820191906000526020600020905b8154815290600101906020018083116104a557829003601f168201915b5050505050905090565b60006104d782610dfe565b610516576040517f08c379a000000000000000000000000000000000000000000000000000000000815260040161050d90612362565b60405180910390fd5b6004600083815260200190815260200160002060009054906101000a900473ffffffffffffffffffffffffffffffffffffffff169050919050565b600061055c826106e8565b90508073ffffffffffffffffffffffffffffffffffffffff168373ffffffffffffffffffffffffffffffffffffffff16036105cc576040517f08c379a00000000000000000000000000000000000000000000000000000000081526004016105c3906123f4565b60405180910390fd5b8073ffffffffffffffffffffffffffffffffffffffff166105eb610e6a565b73ffffffffffffffffffffffffffffffffffffffff16148061061a575061061981610614610e6a565b610c09565b5b610659576040517f08c379a000000000000000000000000000000000000000000000000000000000815260040161065090612486565b60405180910390fd5b6106638383610e72565b505050565b610679610673610e6a565b82610f2b565b6106b8576040517f08c379a00000000000000000000000000000000000000000000000000000000081526004016106af90612518565b60405180910390fd5b6106c3838383611009565b505050565b6106e3838383604051806020016040528060008152506109aa565b505050565b6000806002600084815260200190815260200160002060009054906101000a900473ffffffffffffffffffffffffffffffffffffffff169050600073ffffffffffffffffffffffffffffffffffffffff168173ffffffffffffffffffffffffffffffffffffffff1603610790576040517f08c379a0000000000000000000000000000000000000000000000000000000008152600401610787906125aa565b60405180910390fd5b80915050919050565b60008073ffffffffffffffffffffffffffffffffffffffff168273ffffffffffffffffffffffffffffffffffffffff1603610809576040517f08c379a00000000000000000000000000000000000000000000000000000000081526004016108009061263c565b60405180910390fd5b600360008373ffffffffffffffffffffffffffffffffffffffff1673ffffffffffffffffffffffffffffffffffffffff168152602001908152602001600020549050919050565b610858610e6a565b73ffffffffffffffffffffffffffffffffffffffff166108766108d8565b73ffffffffffffffffffffffffffffffffffffffff16146108cc576040517f08c379a00000000000000000000000000000000000000000000000000000000081526004016108c3906126a8565b60405180910390fd5b6108d6600061126f565b565b6000600760009054906101000a900473ffffffffffffffffffffffffffffffffffffffff16905090565b606060018054610911906122bf565b80601f016020809104026020016040519081016040528092919081815260200182805461093d906122bf565b801561098a5780601f1061095f5761010080835404028352916020019161098a565b820191906000526020600020905b81548152906001019060200180831161096d57829003601f168201915b5050505050905090565b6109a661099f610e6a565b8383611335565b5050565b6109bb6109b5610e6a565b83610f2b565b6109fa576040517f08c379a00000000000000000000000000000000000000000000000000000000081526004016109f190612518565b60405180910390fd5b610a06848484846114a1565b50505050565b6060610a1782610dfe565b610a56576040517f08c379a0000000000000000000000000000000000000000000000000000000008152600401610a4d9061273a565b60405180910390fd5b6000600660008481526020019081526020016000208054610a76906122bf565b80601f0160208091040260200160405190810160405280929190818152602001828054610aa2906122bf565b8015610aef5780601f10610ac457610100808354040283529160200191610aef565b820191906000526020600020905b815481529060010190602001808311610ad257829003601f168201915b505050505090506000610b006114fd565b90506000815103610b15578192505050610b58565b600082511115610b4a578082604051602001610b32929190612796565b60405160208183030381529060405292505050610b58565b610b5384611514565b925050505b919050565b610b65610e6a565b73ffffffffffffffffffffffffffffffffffffffff16610b836108d8565b73ffffffffffffffffffffffffffffffffffffffff1614610bd9576040517f08c379a0000000000000000000000000000000000000000000000000000000008152600401610bd0906126a8565b60405180910390fd5b610be360086115bb565b6000610bef60086115d1565b9050610bfb33826115df565b610c0581836117b8565b5050565b6000600560008473ffffffffffffffffffffffffffffffffffffffff1673ffffffffffffffffffffffffffffffffffffffff16815260200190815260200160002060008373ffffffffffffffffffffffffffffffffffffffff1673ffffffffffffffffffffffffffffffffffffffff16815260200190815260200160002060009054906101000a900460ff16905092915050565b610ca5610e6a565b73ffffffffffffffffffffffffffffffffffffffff16610cc36108d8565b73ffffffffffffffffffffffffffffffffffffffff1614610d19576040517f08c379a0000000000000000000000000000000000000000000000000000000008152600401610d10906126a8565b60405180910390fd5b600073ffffffffffffffffffffffffffffffffffffffff168173ffffffffffffffffffffffffffffffffffffffff1603610d88576040517f08c379a0000000000000000000000000000000000000000000000000000000008152600401610d7f9061282c565b60405180910390fd5b610d918161126f565b50565b60007f01ffc9a7000000000000000000000000000000000000000000000000000000007bffffffffffffffffffffffffffffffffffffffffffffffffffffffff1916827bffffffffffffffffffffffffffffffffffffffffffffffffffffffff1916149050919050565b60008073ffffffffffffffffffffffffffffffffffffffff166002600084815260200190815260200160002060009054906101000a900473ffffffffffffffffffffffffffffffffffffffff1673ffffffffffffffffffffffffffffffffffffffff1614159050919050565b600033905090565b816004600083815260200190815260200160002060006101000a81548173ffffffffffffffffffffffffffffffffffffffff021916908373ffffffffffffffffffffffffffffffffffffffff160217905550808273ffffffffffffffffffffffffffffffffffffffff16610ee5836106e8565b73ffffffffffffffffffffffffffffffffffffffff167f8c5be1e5ebec7d5bd14f71427d1e84f3dd0314c0f7b2291e5b200ac8c7c3b92560405160405180910390a45050565b6000610f3682610dfe565b610f75576040517f08c379a0000000000000000000000000000000000000000000000000000000008152600401610f6c906128be565b60405180910390fd5b6000610f80836106e8565b90508073ffffffffffffffffffffffffffffffffffffffff168473ffffffffffffffffffffffffffffffffffffffff161480610fef57508373ffffffffffffffffffffffffffffffffffffffff16610fd7846104cc565b73ffffffffffffffffffffffffffffffffffffffff16145b806110005750610fff8185610c09565b5b91505092915050565b8273ffffffffffffffffffffffffffffffffffffffff16611029826106e8565b73ffffffffffffffffffffffffffffffffffffffff161461107f576040517f08c379a000000000000000000000000000000000000000000000000000000000815260040161107690612950565b60405180910390fd5b600073ffffffffffffffffffffffffffffffffffffffff168273ffffffffffffffffffffffffffffffffffffffff16036110ee576040517f08c379a00000000000000000000000000000000000000000000000000000000081526004016110e5906129e2565b60405180910390fd5b6110f983838361182c565b611104600082610e72565b6001600360008573ffffffffffffffffffffffffffffffffffffffff1673ffffffffffffffffffffffffffffffffffffffff16815260200190815260200160002060008282546111549190612a31565b925050819055506001600360008473ffffffffffffffffffffffffffffffffffffffff1673ffffffffffffffffffffffffffffffffffffffff16815260200190815260200160002060008282546111ab9190612a65565b92505081905550816002600083815260200190815260200160002060006101000a81548173ffffffffffffffffffffffffffffffffffffffff021916908373ffffffffffffffffffffffffffffffffffffffff160217905550808273ffffffffffffffffffffffffffffffffffffffff168473ffffffffffffffffffffffffffffffffffffffff167fddf252ad1be2c89b69c2b068fc378daa952ba7f163c4a11628f55a4df523b3ef60405160405180910390a461126a838383611831565b505050565b6000600760009054906101000a900473ffffffffffffffffffffffffffffffffffffffff16905081600760006101000a81548173ffffffffffffffffffffffffffffffffffffffff021916908373ffffffffffffffffffffffffffffffffffffffff1602179055508173ffffffffffffffffffffffffffffffffffffffff168173ffffffffffffffffffffffffffffffffffffffff167f8be0079c531659141344cd1fd0a4f28419497f9722a3daafe3b4186f6b6457e060405160405180910390a35050565b8173ffffffffffffffffffffffffffffffffffffffff168373ffffffffffffffffffffffffffffffffffffffff16036113a3576040517f08c379a000000000000000000000000000000000000000000000000000000000815260040161139a90612b07565b60405180910390fd5b80600560008573ffffffffffffffffffffffffffffffffffffffff1673ffffffffffffffffffffffffffffffffffffffff16815260200190815260200160002060008473ffffffffffffffffffffffffffffffffffffffff1673ffffffffffffffffffffffffffffffffffffffff16815260200190815260200160002060006101000a81548160ff0219169083151502179055508173ffffffffffffffffffffffffffffffffffffffff168373ffffffffffffffffffffffffffffffffffffffff167f17307eab39ab6107e8899845ad3d59bd9653f200f220920489ca2b5937696c31836040516114949190611c97565b60405180910390a3505050565b6114ac848484611009565b6114b884848484611836565b6114f7576040517f08c379a00000000000000000000000000000000000000000000000000000000081526004016114ee90612b99565b60405180910390fd5b50505050565b606060405180602001604052806000815250905090565b606061151f82610dfe565b61155e576040517f08c379a000000000000000000000000000000000000000000000000000000000815260040161155590612c2b565b60405180910390fd5b60006115686114fd565b9050600081511161158857604051806020016040528060008152506115b3565b80611592846119bd565b6040516020016115a3929190612796565b6040516020818303038152906040525b915050919050565b6001816000016000828254019250508190555050565b600081600001549050919050565b600073ffffffffffffffffffffffffffffffffffffffff168273ffffffffffffffffffffffffffffffffffffffff160361164e576040517f08c379a000000000000000000000000000000000000000000000000000000000815260040161164590612c97565b60405180910390fd5b61165781610dfe565b15611697576040517f08c379a000000000000000000000000000000000000000000000000000000000815260040161168e90612d03565b60405180910390fd5b6116a36000838361182c565b6001600360008473ffffffffffffffffffffffffffffffffffffffff1673ffffffffffffffffffffffffffffffffffffffff16815260200190815260200160002060008282546116f39190612a65565b92505081905550816002600083815260200190815260200160002060006101000a81548173ffffffffffffffffffffffffffffffffffffffff021916908373ffffffffffffffffffffffffffffffffffffffff160217905550808273ffffffffffffffffffffffffffffffffffffffff16600073ffffffffffffffffffffffffffffffffffffffff167fddf252ad1be2c89b69c2b068fc378daa952ba7f163c4a11628f55a4df523b3ef60405160405180910390a46117b460008383611831565b5050565b6117c182610dfe565b611800576040517f08c379a00000000000000000000000000000000000000000000000000000000081526004016117f790612d95565b60405180910390fd5b80600660008481526020019081526020016000209080519060200190611827929190611b40565b505050565b505050565b505050565b60006118578473ffffffffffffffffffffffffffffffffffffffff16611b1d565b156119b0578373ffffffffffffffffffffffffffffffffffffffff1663150b7a02611880610e6a565b8786866040518563ffffffff1660e01b81526004016118a29493929190612e0a565b6020604051808303816000875af19250505080156118de57506040513d601f19601f820116820180604052508101906118db9190612e6b565b60015b611960573d806000811461190e576040519150601f19603f3d011682016040523d82523d6000602084013e611913565b606091505b506000815103611958576040517f08c379a000000000000000000000000000000000000000000000000000000000815260040161194f90612b99565b60405180910390fd5b805181602001fd5b63150b7a0260e01b7bffffffffffffffffffffffffffffffffffffffffffffffffffffffff1916817bffffffffffffffffffffffffffffffffffffffffffffffffffffffff1916149150506119b5565b600190505b949350505050565b606060008203611a04576040518060400160405280600181526020017f30000000000000000000000000000000000000000000000000000000000000008152509050611b18565b600082905060005b60008214611a36578080611a1f90612e98565b915050600a82611a2f9190612f0f565b9150611a0c565b60008167ffffffffffffffff811115611a5257611a51611fb8565b5b6040519080825280601f01601f191660200182016040528015611a845781602001600182028036833780820191505090505b5090505b60008514611b1157600182611a9d9190612a31565b9150600a85611aac9190612f40565b6030611ab89190612a65565b60f81b818381518110611ace57611acd612f71565b5b60200101907effffffffffffffffffffffffffffffffffffffffffffffffffffffffffffff1916908160001a905350600a85611b0a9190612f0f565b9450611a88565b8093505050505b919050565b6000808273ffffffffffffffffffffffffffffffffffffffff163b119050919050565b828054611b4c906122bf565b90600052602060002090601f016020900481019282611b6e5760008555611bb5565b82601f10611b8757805160ff1916838001178555611bb5565b82800160010185558215611bb5579182015b82811115611bb4578251825591602001919060010190611b99565b5b509050611bc29190611bc6565b5090565b5b80821115611bdf576000816000905550600101611bc7565b5090565b6000604051905090565b600080fd5b600080fd5b60007fffffffff0000000000000000000000000000000000000000000000000000000082169050919050565b611c2c81611bf7565b8114611c3757600080fd5b50565b600081359050611c4981611c23565b92915050565b600060208284031215611c6557611c64611bed565b5b6000611c7384828501611c3a565b91505092915050565b60008115159050919050565b611c9181611c7c565b82525050565b6000602082019050611cac6000830184611c88565b92915050565b600081519050919050565b600082825260208201905092915050565b60005b83811015611cec578082015181840152602081019050611cd1565b83811115611cfb576000848401525b50505050565b6000601f19601f8301169050919050565b6000611d1d82611cb2565b611d278185611cbd565b9350611d37818560208601611cce565b611d4081611d01565b840191505092915050565b60006020820190508181036000830152611d658184611d12565b905092915050565b6000819050919050565b611d8081611d6d565b8114611d8b57600080fd5b50565b600081359050611d9d81611d77565b92915050565b600060208284031215611db957611db8611bed565b5b6000611dc784828501611d8e565b91505092915050565b600073ffffffffffffffffffffffffffffffffffffffff82169050919050565b6000611dfb82611dd0565b9050919050565b611e0b81611df0565b82525050565b6000602082019050611e266000830184611e02565b92915050565b611e3581611df0565b8114611e4057600080fd5b50565b600081359050611e5281611e2c565b92915050565b60008060408385031215611e6f57611e6e611bed565b5b6000611e7d85828601611e43565b9250506020611e8e85828601611d8e565b9150509250929050565b600080600060608486031215611eb157611eb0611bed565b5b6000611ebf86828701611e43565b9350506020611ed086828701611e43565b9250506040611ee186828701611d8e565b9150509250925092565b600060208284031215611f0157611f00611bed565b5b6000611f0f84828501611e43565b91505092915050565b611f2181611d6d565b82525050565b6000602082019050611f3c6000830184611f18565b92915050565b611f4b81611c7c565b8114611f5657600080fd5b50565b600081359050611f6881611f42565b92915050565b60008060408385031215611f8557611f84611bed565b5b6000611f9385828601611e43565b9250506020611fa485828601611f59565b9150509250929050565b600080fd5b600080fd5b7f4e487b7100000000000000000000000000000000000000000000000000000000600052604160045260246000fd5b611ff082611d01565b810181811067ffffffffffffffff8211171561200f5761200e611fb8565b5b80604052505050565b6000612022611be3565b905061202e8282611fe7565b919050565b600067ffffffffffffffff82111561204e5761204d611fb8565b5b61205782611d01565b9050602081019050919050565b82818337600083830152505050565b600061208661208184612033565b612018565b9050828152602081018484840111156120a2576120a1611fb3565b5b6120ad848285612064565b509392505050565b600082601f8301126120ca576120c9611fae565b5b81356120da848260208601612073565b91505092915050565b600080600080608085870312156120fd576120fc611bed565b5b600061210b87828801611e43565b945050602061211c87828801611e43565b935050604061212d87828801611d8e565b925050606085013567ffffffffffffffff81111561214e5761214d611bf2565b5b61215a878288016120b5565b91505092959194509250565b600067ffffffffffffffff82111561218157612180611fb8565b5b61218a82611d01565b9050602081019050919050565b60006121aa6121a584612166565b612018565b9050828152602081018484840111156121c6576121c5611fb3565b5b6121d1848285612064565b509392505050565b600082601f8301126121ee576121ed611fae565b5b81356121fe848260208601612197565b91505092915050565b60006020828403121561221d5761221c611bed565b5b600082013567ffffffffffffffff81111561223b5761223a611bf2565b5b612247848285016121d9565b91505092915050565b6000806040838503121561226757612266611bed565b5b600061227585828601611e43565b925050602061228685828601611e43565b9150509250929050565b7f4e487b7100000000000000000000000000000000000000000000000000000000600052602260045260246000fd5b600060028204905060018216806122d757607f821691505b6020821081036122ea576122e9612290565b5b50919050565b7f4552433732313a20617070726f76656420717565727920666f72206e6f6e657860008201527f697374656e7420746f6b656e0000000000000000000000000000000000000000602082015250565b600061234c602c83611cbd565b9150612357826122f0565b604082019050919050565b6000602082019050818103600083015261237b8161233f565b9050919050565b7f4552433732313a20617070726f76616c20746f2063757272656e74206f776e6560008201527f7200000000000000000000000000000000000000000000000000000000000000602082015250565b60006123de602183611cbd565b91506123e982612382565b604082019050919050565b6000602082019050818103600083015261240d816123d1565b9050919050565b7f4552433732313a20617070726f76652063616c6c6572206973206e6f74206f7760008201527f6e6572206e6f7220617070726f76656420666f7220616c6c0000000000000000602082015250565b6000612470603883611cbd565b915061247b82612414565b604082019050919050565b6000602082019050818103600083015261249f81612463565b9050919050565b7f4552433732313a207472616e736665722063616c6c6572206973206e6f74206f60008201527f776e6572206e6f7220617070726f766564000000000000000000000000000000602082015250565b6000612502603183611cbd565b915061250d826124a6565b604082019050919050565b60006020820190508181036000830152612531816124f5565b9050919050565b7f4552433732313a206f776e657220717565727920666f72206e6f6e657869737460008201527f656e7420746f6b656e0000000000000000000000000000000000000000000000602082015250565b6000612594602983611cbd565b915061259f82612538565b604082019050919050565b600060208201905081810360008301526125c381612587565b9050919050565b7f4552433732313a2062616c616e636520717565727920666f7220746865207a6560008201527f726f206164647265737300000000000000000000000000000000000000000000602082015250565b6000612626602a83611cbd565b9150612631826125ca565b604082019050919050565b6000602082019050818103600083015261265581612619565b9050919050565b7f4f776e61626c653a2063616c6c6572206973206e6f7420746865206f776e6572600082015250565b6000612692602083611cbd565b915061269d8261265c565b602082019050919050565b600060208201905081810360008301526126c181612685565b9050919050565b7f45524337323155524953746f726167653a2055524920717565727920666f722060008201527f6e6f6e6578697374656e7420746f6b656e000000000000000000000000000000602082015250565b6000612724603183611cbd565b915061272f826126c8565b604082019050919050565b6000602082019050818103600083015261275381612717565b9050919050565b600081905092915050565b600061277082611cb2565b61277a818561275a565b935061278a818560208601611cce565b80840191505092915050565b60006127a28285612765565b91506127ae8284612765565b91508190509392505050565b7f4f776e61626c653a206e6577206f776e657220697320746865207a65726f206160008201527f6464726573730000000000000000000000000000000000000000000000000000602082015250565b6000612816602683611cbd565b9150612821826127ba565b604082019050919050565b6000602082019050818103600083015261284581612809565b9050919050565b7f4552433732313a206f70657261746f7220717565727920666f72206e6f6e657860008201527f697374656e7420746f6b656e0000000000000000000000000000000000000000602082015250565b60006128a8602c83611cbd565b91506128b38261284c565b604082019050919050565b600060208201905081810360008301526128d78161289b565b9050919050565b7f4552433732313a207472616e736665722066726f6d20696e636f72726563742060008201527f6f776e6572000000000000000000000000000000000000000000000000000000602082015250565b600061293a602583611cbd565b9150612945826128de565b604082019050919050565b600060208201905081810360008301526129698161292d565b9050919050565b7f4552433732313a207472616e7366657220746f20746865207a65726f2061646460008201527f7265737300000000000000000000000000000000000000000000000000000000602082015250565b60006129cc602483611cbd565b91506129d782612970565b604082019050919050565b600060208201905081810360008301526129fb816129bf565b9050919050565b7f4e487b7100000000000000000000000000000000000000000000000000000000600052601160045260246000fd5b6000612a3c82611d6d565b9150612a4783611d6d565b925082821015612a5a57612a59612a02565b5b828203905092915050565b6000612a7082611d6d565b9150612a7b83611d6d565b9250827fffffffffffffffffffffffffffffffffffffffffffffffffffffffffffffffff03821115612ab057612aaf612a02565b5b828201905092915050565b7f4552433732313a20617070726f766520746f2063616c6c657200000000000000600082015250565b6000612af1601983611cbd565b9150612afc82612abb565b602082019050919050565b60006020820190508181036000830152612b2081612ae4565b9050919050565b7f4552433732313a207472616e7366657220746f206e6f6e20455243373231526560008201527f63656976657220696d706c656d656e7465720000000000000000000000000000602082015250565b6000612b83603283611cbd565b9150612b8e82612b27565b604082019050919050565b60006020820190508181036000830152612bb281612b76565b9050919050565b7f4552433732314d657461646174613a2055524920717565727920666f72206e6f60008201527f6e6578697374656e7420746f6b656e0000000000000000000000000000000000602082015250565b6000612c15602f83611cbd565b9150612c2082612bb9565b604082019050919050565b60006020820190508181036000830152612c4481612c08565b9050919050565b7f4552433732313a206d696e7420746f20746865207a65726f2061646472657373600082015250565b6000612c81602083611cbd565b9150612c8c82612c4b565b602082019050919050565b60006020820190508181036000830152612cb081612c74565b9050919050565b7f4552433732313a20746f6b656e20616c7265616479206d696e74656400000000600082015250565b6000612ced601c83611cbd565b9150612cf882612cb7565b602082019050919050565b60006020820190508181036000830152612d1c81612ce0565b9050919050565b7f45524337323155524953746f726167653a2055524920736574206f66206e6f6e60008201527f6578697374656e7420746f6b656e000000000000000000000000000000000000602082015250565b6000612d7f602e83611cbd565b9150612d8a82612d23565b604082019050919050565b60006020820190508181036000830152612dae81612d72565b9050919050565b600081519050919050565b600082825260208201905092915050565b6000612ddc82612db5565b612de68185612dc0565b9350612df6818560208601611cce565b612dff81611d01565b840191505092915050565b6000608082019050612e1f6000830187611e02565b612e2c6020830186611e02565b612e396040830185611f18565b8181036060830152612e4b8184612dd1565b905095945050505050565b600081519050612e6581611c23565b92915050565b600060208284031215612e8157612e80611bed565b5b6000612e8f84828501612e56565b91505092915050565b6000612ea382611d6d565b91507fffffffffffffffffffffffffffffffffffffffffffffffffffffffffffffffff8203612ed557612ed4612a02565b5b600182019050919050565b7f4e487b7100000000000000000000000000000000000000000000000000000000600052601260045260246000fd5b6000612f1a82611d6d565b9150612f2583611d6d565b925082612f3557612f34612ee0565b5b828204905092915050565b6000612f4b82611d6d565b9150612f5683611d6d565b925082612f6657612f65612ee0565b5b828206905092915050565b7f4e487b7100000000000000000000000000000000000000000000000000000000600052603260045260246000fdfea264697066735822122043104544cfec76ee9eb51a5a1064b1a7390add0af4a026f44bd619d67c857afc64736f6c634300080d0033",
  "immutableReferences": {},
  "source": "pragma solidity ^0.8.0;\n\nimport \"@openzeppelin/contracts/token/ERC721/extensions/ERC721URIStorage.sol\";\nimport \"@openzeppelin/contracts/access/Ownable.sol\";\nimport \"@openzeppelin/contracts/utils/Counters.sol\";\n\ncontract CookieClickerGameContract is ERC721URIStorage, Ownable {\n    using Counters for Counters.Counter;\n    Counters.Counter private _tokenIds;\n\n    constructor() public ERC721 (\"COOKIE CLICKER GAME\", \"CCG\" ) {\n    }\n\n    function mint(string memory tokenURI) public onlyOwner {\n        _tokenIds.increment();\n        uint256 newTokenId = _tokenIds.current();\n        _mint(msg.sender, newTokenId);\n        _setTokenURI(newTokenId, tokenURI);\n    }\n}",
  "sourcePath": "/Users/diego/Documents/Freelancing/FreelancingProjects/Freelancing_Kevin_NftDapp_Order/contracts/CookieClickerGameContract.sol",
  "compiler": {
    "name": "solc",
    "version": "0.8.13+commit.abaa5c0e.Emscripten.clang"
  },
  "schemaVersion": "3.4.3",
  "updatedAt": "2022-04-20T23:46:35.723Z",
  "devdoc": {
    "kind": "dev",
    "methods": {
      "approve(address,uint256)": {
        "details": "See {IERC721-approve}."
      },
      "balanceOf(address)": {
        "details": "See {IERC721-balanceOf}."
      },
      "getApproved(uint256)": {
        "details": "See {IERC721-getApproved}."
      },
      "isApprovedForAll(address,address)": {
        "details": "See {IERC721-isApprovedForAll}."
      },
      "name()": {
        "details": "See {IERC721Metadata-name}."
      },
      "owner()": {
        "details": "Returns the address of the current owner."
      },
      "ownerOf(uint256)": {
        "details": "See {IERC721-ownerOf}."
      },
      "renounceOwnership()": {
        "details": "Leaves the contract without owner. It will not be possible to call `onlyOwner` functions anymore. Can only be called by the current owner. NOTE: Renouncing ownership will leave the contract without an owner, thereby removing any functionality that is only available to the owner."
      },
      "safeTransferFrom(address,address,uint256)": {
        "details": "See {IERC721-safeTransferFrom}."
      },
      "safeTransferFrom(address,address,uint256,bytes)": {
        "details": "See {IERC721-safeTransferFrom}."
      },
      "setApprovalForAll(address,bool)": {
        "details": "See {IERC721-setApprovalForAll}."
      },
      "supportsInterface(bytes4)": {
        "details": "See {IERC165-supportsInterface}."
      },
      "symbol()": {
        "details": "See {IERC721Metadata-symbol}."
      },
      "tokenURI(uint256)": {
        "details": "See {IERC721Metadata-tokenURI}."
      },
      "transferFrom(address,address,uint256)": {
        "details": "See {IERC721-transferFrom}."
      },
      "transferOwnership(address)": {
        "details": "Transfers ownership of the contract to a new account (`newOwner`). Can only be called by the current owner."
      }
    },
    "version": 1
  },
  "userdoc": {
    "kind": "user",
    "methods": {},
    "version": 1
  }
}